{
  "contractName": "Committee",
  "abi": [
    {
      "inputs": [],
      "payable": false,
      "stateMutability": "nonpayable",
      "type": "constructor"
    },
    {
      "constant": true,
      "inputs": [
        {
          "internalType": "address",
          "name": "",
          "type": "address"
        }
      ],
      "name": "_members",
      "outputs": [
        {
          "internalType": "uint256",
          "name": "",
          "type": "uint256"
        }
      ],
      "payable": false,
      "stateMutability": "view",
      "type": "function"
    },
    {
      "constant": true,
      "inputs": [],
      "name": "amount",
      "outputs": [
        {
          "internalType": "uint256",
          "name": "",
          "type": "uint256"
        }
      ],
      "payable": false,
      "stateMutability": "view",
      "type": "function"
    },
    {
      "constant": true,
      "inputs": [],
      "name": "current_cycle",
      "outputs": [
        {
          "internalType": "uint256",
          "name": "",
          "type": "uint256"
        }
      ],
      "payable": false,
      "stateMutability": "view",
      "type": "function"
    },
    {
      "constant": true,
      "inputs": [],
      "name": "isActive",
      "outputs": [
        {
          "internalType": "bool",
          "name": "",
          "type": "bool"
        }
      ],
      "payable": false,
      "stateMutability": "view",
      "type": "function"
    },
    {
      "constant": true,
      "inputs": [],
      "name": "lateFee",
      "outputs": [
        {
          "internalType": "uint256",
          "name": "",
          "type": "uint256"
        }
      ],
      "payable": false,
      "stateMutability": "view",
      "type": "function"
    },
    {
      "constant": true,
      "inputs": [],
      "name": "memberCount",
      "outputs": [
        {
          "internalType": "uint256",
          "name": "",
          "type": "uint256"
        }
      ],
      "payable": false,
      "stateMutability": "view",
      "type": "function"
    },
    {
      "constant": true,
      "inputs": [
        {
          "internalType": "uint256",
          "name": "",
          "type": "uint256"
        }
      ],
      "name": "members",
      "outputs": [
        {
          "internalType": "address",
          "name": "_address",
          "type": "address"
        },
        {
          "internalType": "string",
          "name": "name",
          "type": "string"
        },
        {
          "internalType": "uint256",
          "name": "amountPaid",
          "type": "uint256"
        },
        {
          "internalType": "uint256",
          "name": "security",
          "type": "uint256"
        }
      ],
      "payable": false,
      "stateMutability": "view",
      "type": "function"
    },
    {
      "constant": true,
      "inputs": [],
      "name": "owner",
      "outputs": [
        {
          "internalType": "address",
          "name": "",
          "type": "address"
        }
      ],
      "payable": false,
      "stateMutability": "view",
      "type": "function"
    },
    {
      "constant": true,
      "inputs": [
        {
          "internalType": "address",
          "name": "",
          "type": "address"
        }
      ],
      "name": "paid_in_cycle",
      "outputs": [
        {
          "internalType": "bool",
          "name": "",
          "type": "bool"
        }
      ],
      "payable": false,
      "stateMutability": "view",
      "type": "function"
    },
    {
      "constant": true,
      "inputs": [],
      "name": "quorum",
      "outputs": [
        {
          "internalType": "uint256",
          "name": "",
          "type": "uint256"
        }
      ],
      "payable": false,
      "stateMutability": "view",
      "type": "function"
    },
    {
      "constant": true,
      "inputs": [],
      "name": "security_amount",
      "outputs": [
        {
          "internalType": "uint256",
          "name": "",
          "type": "uint256"
        }
      ],
      "payable": false,
      "stateMutability": "view",
      "type": "function"
    },
    {
      "constant": true,
      "inputs": [],
      "name": "turnAddress",
      "outputs": [
        {
          "internalType": "address payable",
          "name": "",
          "type": "address"
        }
      ],
      "payable": false,
      "stateMutability": "view",
      "type": "function"
    },
    {
      "constant": false,
      "inputs": [
        {
          "internalType": "address",
          "name": "member_address",
          "type": "address"
        },
        {
          "internalType": "string",
          "name": "name",
          "type": "string"
        }
      ],
      "name": "addMember",
      "outputs": [
        {
          "internalType": "bool",
          "name": "",
          "type": "bool"
        }
      ],
      "payable": true,
      "stateMutability": "payable",
      "type": "function"
    },
    {
      "constant": false,
      "inputs": [
        {
          "internalType": "address",
          "name": "member_address",
          "type": "address"
        }
      ],
      "name": "payCommittee",
      "outputs": [],
      "payable": true,
      "stateMutability": "payable",
      "type": "function"
    },
    {
      "constant": false,
      "inputs": [
        {
          "internalType": "address",
          "name": "member_address",
          "type": "address"
        }
      ],
      "name": "leaveCommitee",
      "outputs": [],
      "payable": true,
      "stateMutability": "payable",
      "type": "function"
    },
    {
      "constant": false,
      "inputs": [],
      "name": "withdrawCommitee",
      "outputs": [],
      "payable": false,
      "stateMutability": "nonpayable",
      "type": "function"
    },
    {
      "constant": false,
      "inputs": [],
      "name": "stopCommittee",
      "outputs": [],
      "payable": false,
      "stateMutability": "nonpayable",
      "type": "function"
    },
    {
      "constant": false,
      "inputs": [
        {
          "internalType": "uint256",
          "name": "q",
          "type": "uint256"
        }
      ],
      "name": "setQuorum",
      "outputs": [],
      "payable": false,
      "stateMutability": "nonpayable",
      "type": "function"
    },
    {
      "constant": false,
      "inputs": [
        {
          "internalType": "uint256",
          "name": "q",
          "type": "uint256"
        }
      ],
      "name": "setCycles",
      "outputs": [],
      "payable": false,
      "stateMutability": "nonpayable",
      "type": "function"
    },
    {
      "constant": false,
      "inputs": [
        {
          "internalType": "uint256",
          "name": "a",
          "type": "uint256"
        }
      ],
      "name": "setAmount",
      "outputs": [],
      "payable": false,
      "stateMutability": "nonpayable",
      "type": "function"
    },
    {
      "constant": false,
      "inputs": [
        {
          "internalType": "uint256",
          "name": "lf",
          "type": "uint256"
        }
      ],
      "name": "setLateFee",
      "outputs": [],
      "payable": false,
      "stateMutability": "nonpayable",
      "type": "function"
    },
    {
      "constant": false,
      "inputs": [
        {
          "internalType": "uint256",
          "name": "amo",
          "type": "uint256"
        },
        {
          "internalType": "uint256",
          "name": "cycles",
          "type": "uint256"
        },
        {
          "internalType": "uint256",
          "name": "quo",
          "type": "uint256"
        }
      ],
      "name": "makepool",
      "outputs": [],
      "payable": true,
      "stateMutability": "payable",
      "type": "function"
    },
    {
      "constant": true,
      "inputs": [],
      "name": "isPoolOwner",
      "outputs": [
        {
          "internalType": "bool",
          "name": "",
          "type": "bool"
        }
      ],
      "payable": false,
      "stateMutability": "view",
      "type": "function"
    }
  ],
  "bytecode": "0x608060405234801561001057600080fd5b5033600d60006101000a81548173ffffffffffffffffffffffffffffffffffffffff021916908373ffffffffffffffffffffffffffffffffffffffff1602179055506000600760006101000a81548160ff021916908315150217905550670de0b6b3a764000060018190555033600e60006101000a81548173ffffffffffffffffffffffffffffffffffffffff021916908373ffffffffffffffffffffffffffffffffffffffff160217905550600360008190555061113d806100d46000396000f3fe6080604052600436106101405760003560e01c80637e99a3d6116100b6578063c127c2471161006f578063c127c247146105d4578063c1701772146106c7578063c1ba4e59146106f2578063cda57a221461072d578063dc34fa8f14610792578063ea3dbfe4146107d657610140565b80637e99a3d6146104535780638da5cb5b1461048e578063931f05d9146104e5578063aa8c217c146104fc578063ad29a4db14610527578063bf0366c81461056b57610140565b80633f4de62f116101085780633f4de62f1461025c57806346c25b3f14610287578063495bb3db146102b65780635daf08ca146102f857806370eb0a90146103ed5780637cd9b0921461041857610140565b806307967afd1461014557806311aee3801461019c5780631703a018146101c757806322f3e2d4146101f2578063271f88b414610221575b600080fd5b34801561015157600080fd5b5061015a6107ed565b604051808273ffffffffffffffffffffffffffffffffffffffff1673ffffffffffffffffffffffffffffffffffffffff16815260200191505060405180910390f35b3480156101a857600080fd5b506101b1610813565b6040518082815260200191505060405180910390f35b3480156101d357600080fd5b506101dc610819565b6040518082815260200191505060405180910390f35b3480156101fe57600080fd5b5061020761081f565b604051808215151515815260200191505060405180910390f35b34801561022d57600080fd5b5061025a6004803603602081101561024457600080fd5b8101908080359060200190929190505050610832565b005b34801561026857600080fd5b5061027161083c565b6040518082815260200191505060405180910390f35b34801561029357600080fd5b5061029c610842565b604051808215151515815260200191505060405180910390f35b6102f6600480360360608110156102cc57600080fd5b8101908080359060200190929190803590602001909291908035906020019092919050505061089a565b005b34801561030457600080fd5b506103316004803603602081101561031b57600080fd5b81019080803590602001909291905050506108bb565b604051808573ffffffffffffffffffffffffffffffffffffffff1673ffffffffffffffffffffffffffffffffffffffff16815260200180602001848152602001838152602001828103825285818151815260200191508051906020019080838360005b838110156103af578082015181840152602081019050610394565b50505050905090810190601f1680156103dc5780820380516001836020036101000a031916815260200191505b509550505050505060405180910390f35b3480156103f957600080fd5b506104026109a3565b6040518082815260200191505060405180910390f35b34801561042457600080fd5b506104516004803603602081101561043b57600080fd5b81019080803590602001909291905050506109a9565b005b34801561045f57600080fd5b5061048c6004803603602081101561047657600080fd5b81019080803590602001909291905050506109b3565b005b34801561049a57600080fd5b506104a36109bd565b604051808273ffffffffffffffffffffffffffffffffffffffff1673ffffffffffffffffffffffffffffffffffffffff16815260200191505060405180910390f35b3480156104f157600080fd5b506104fa6109e3565b005b34801561050857600080fd5b50610511610a00565b6040518082815260200191505060405180910390f35b6105696004803603602081101561053d57600080fd5b81019080803573ffffffffffffffffffffffffffffffffffffffff169060200190929190505050610a06565b005b34801561057757600080fd5b506105ba6004803603602081101561058e57600080fd5b81019080803573ffffffffffffffffffffffffffffffffffffffff169060200190929190505050610b5a565b604051808215151515815260200191505060405180910390f35b6106ad600480360360408110156105ea57600080fd5b81019080803573ffffffffffffffffffffffffffffffffffffffff1690602001909291908035906020019064010000000081111561062757600080fd5b82018360208201111561063957600080fd5b8035906020019184600183028401116401000000008311171561065b57600080fd5b91908080601f016020809104026020016040519081016040528093929190818152602001838380828437600081840152601f19601f820116905080830192505050505050509192919290505050610b7a565b604051808215151515815260200191505060405180910390f35b3480156106d357600080fd5b506106dc610e33565b6040518082815260200191505060405180910390f35b3480156106fe57600080fd5b5061072b6004803603602081101561071557600080fd5b8101908080359060200190929190505050610e39565b005b34801561073957600080fd5b5061077c6004803603602081101561075057600080fd5b81019080803573ffffffffffffffffffffffffffffffffffffffff169060200190929190505050610e43565b6040518082815260200191505060405180910390f35b6107d4600480360360208110156107a857600080fd5b81019080803573ffffffffffffffffffffffffffffffffffffffff169060200190929190505050610e5b565b005b3480156107e257600080fd5b506107eb610ea3565b005b600e60009054906101000a900473ffffffffffffffffffffffffffffffffffffffff1681565b600b5481565b60005481565b600760009054906101000a900460ff1681565b8060018190555050565b60065481565b6000600d60009054906101000a900473ffffffffffffffffffffffffffffffffffffffff1673ffffffffffffffffffffffffffffffffffffffff163373ffffffffffffffffffffffffffffffffffffffff1614905090565b81600381905550806000819055508260018190555082600281905550505050565b60086020528060005260406000206000915090508060000160009054906101000a900473ffffffffffffffffffffffffffffffffffffffff1690806001018054600181600116156101000203166002900480601f01602080910402602001604051908101604052809291908181526020018280546001816001161561010002031660029004801561098d5780601f106109625761010080835404028352916020019161098d565b820191906000526020600020905b81548152906001019060200180831161097057829003601f168201915b5050505050908060020154908060030154905084565b60025481565b8060038190555050565b8060068190555050565b600d60009054906101000a900473ffffffffffffffffffffffffffffffffffffffff1681565b6000600760006101000a81548160ff021916908315150217905550565b60015481565b60011515600760009054906101000a900460ff16151514610a2657600080fd5b60011515600460008373ffffffffffffffffffffffffffffffffffffffff1673ffffffffffffffffffffffffffffffffffffffff16815260200190815260200160002060009054906101000a900460ff1615151415610a8457610b57565b6000600960008373ffffffffffffffffffffffffffffffffffffffff1673ffffffffffffffffffffffffffffffffffffffff1681526020019081526020016000205490503460086000838152602001908152602001600020600201600082825401925050819055506001600460008473ffffffffffffffffffffffffffffffffffffffff1673ffffffffffffffffffffffffffffffffffffffff16815260200190815260200160002060006101000a81548160ff0219169083151502179055506001600560008282540192505081905550505b50565b60046020528060005260406000206000915054906101000a900460ff1681565b600060011515600760009054906101000a900460ff1615151415610ba15760009050610e2d565b60011515600c60008573ffffffffffffffffffffffffffffffffffffffff1673ffffffffffffffffffffffffffffffffffffffff16815260200190815260200160002060009054906101000a900460ff1615151415610c035760009050610e2d565b6000600960008573ffffffffffffffffffffffffffffffffffffffff1673ffffffffffffffffffffffffffffffffffffffff168152602001908152602001600020541115610c545760009050610e2d565b600b6000815480929190600101919050555060405180608001604052808473ffffffffffffffffffffffffffffffffffffffff16815260200183815260200160008152602001600081525060086000600b54815260200190815260200160002060008201518160000160006101000a81548173ffffffffffffffffffffffffffffffffffffffff021916908373ffffffffffffffffffffffffffffffffffffffff1602179055506020820151816001019080519060200190610d17929190611063565b506040820151816002015560608201518160030155905050600b54600960008573ffffffffffffffffffffffffffffffffffffffff1673ffffffffffffffffffffffffffffffffffffffff168152602001908152602001600020819055503460086000600b54815260200190815260200160002060030181905550600a8390806001815401808255809150509060018203906000526020600020016000909192909190916101000a81548173ffffffffffffffffffffffffffffffffffffffff021916908373ffffffffffffffffffffffffffffffffffffffff16021790555050600054600b541415610e28576001600760006101000a81548160ff02191690831515021790555060016003819055505b600190505b92915050565b60035481565b8060008190555050565b60096020528060005260406000206000915090505481565b6000600960008373ffffffffffffffffffffffffffffffffffffffff1673ffffffffffffffffffffffffffffffffffffffff1681526020019081526020016000208190555050565b600b54600554141561106157600e60009054906101000a900473ffffffffffffffffffffffffffffffffffffffff1673ffffffffffffffffffffffffffffffffffffffff166108fc6001549081150290604051600060405180830381858888f19350505050158015610f19573d6000803e3d6000fd5b5060008090505b600a80549050811015610fc957600060046000600a8481548110610f4057fe5b9060005260206000200160009054906101000a900473ffffffffffffffffffffffffffffffffffffffff1673ffffffffffffffffffffffffffffffffffffffff1673ffffffffffffffffffffffffffffffffffffffff16815260200190815260200160002060006101000a81548160ff0219169083151502179055508080600101915050610f20565b5060006005819055506001600360008282540192505081905550600a60016003540381548110610ff557fe5b9060005260206000200160009054906101000a900473ffffffffffffffffffffffffffffffffffffffff16600e60006101000a81548173ffffffffffffffffffffffffffffffffffffffff021916908373ffffffffffffffffffffffffffffffffffffffff1602179055505b565b828054600181600116156101000203166002900490600052602060002090601f016020900481019282601f106110a457805160ff19168380011785556110d2565b828001600101855582156110d2579182015b828111156110d15782518255916020019190600101906110b6565b5b5090506110df91906110e3565b5090565b61110591905b808211156111015760008160009055506001016110e9565b5090565b9056fea265627a7a72315820a0224bcab48dd727cf8b1aef80a8f5ae9083031f03058fe9f667cb49e364950264736f6c63430005100032",
  "source": "pragma solidity >=0.4.21 <0.7.0;\r\n\r\ncontract Committee {\r\n\r\n    struct Member {\r\n        address _address; //address of member\r\n        string name;\r\n        uint amountPaid; //amount in wei that member has paid\r\n        uint security;\r\n    }\r\n\r\n    uint public quorum; //fixed number of members default=3\r\n\r\n    uint public amount; //amount in wei that everyone must pay default = 1 eth\r\n\r\n    uint public security_amount; //security that must be paid when joining\r\n\r\n    uint public current_cycle;\r\n    mapping(address => bool) public paid_in_cycle; //check if member has paid in current cycle\r\n    uint cycle_paid_count;\r\n\r\n    uint public lateFee;\r\n\r\n    bool public isActive;//is committee running (or waiting for members etc)?\r\n\r\n    mapping(uint => Member) public members; //to store member objects to get name ect of members4\r\n    mapping(address => uint) public _members; //to get key of member => 0 for invalid members, some index for valid members\r\n    address[] members_array;\r\n    uint public memberCount;\r\n    mapping(address => bool)  blacklist; //addresses who are not allowed to be members => blacklist(address) == true if member is in blacklist\r\n\r\n    address public owner; //owner of pool\r\n\r\n    address payable public turnAddress; //whose turn it is default: owner\r\n\r\n    constructor() public {\r\n        owner = msg.sender;\r\n        isActive = false;\r\n        amount = 1 ether;\r\n        turnAddress = msg.sender;\r\n        quorum = 3;\r\n\r\n    }\r\n\r\n    /**Function to add a new member to the committee */\r\n    function addMember (address member_address, string memory name) public payable returns (bool){\r\n        if(isActive == true){\r\n            return false;\r\n        }\r\n        if(blacklist[member_address] == true){\r\n            return false;\r\n        }\r\n        if(_members[member_address] > 0) {\r\n            return false;\r\n        }\r\n\r\n        /**Create new member */\r\n        memberCount++; //increse index number\r\n        members[memberCount] = Member(member_address,name,0,0); //create member object add to members map\r\n        _members[member_address] = memberCount; //store index in _members map\r\n      \tmembers[memberCount].security = msg.value;\r\n        members_array.push(member_address);\r\n        //Make pool as active if quorum complete/\r\n        if(memberCount == quorum){\r\n            isActive = true;\r\n            current_cycle = 1;\r\n        }\r\n        return true;\r\n    }\r\n\r\n    \r\n    /**Function to pay the committee for the current cycle. It can be paid only once in the cycle */\r\n    function payCommittee(address member_address) public payable{\r\n        require (isActive == true);\r\n        if(paid_in_cycle[member_address] == true){\r\n            return;\r\n        }\r\n        \r\n        uint index = _members[member_address]; //get index\r\n        members[index].amountPaid += msg.value; //msg.value contains the amount sent\r\n        //^ Note: this is only record keeping. Actual amount is stored in contract.\r\n\r\n        paid_in_cycle[member_address] = true;\r\n        cycle_paid_count+=1;\r\n    }\r\n\r\n    /**Function to leave the committee */\r\n    function leaveCommitee(address member_address) public payable{\r\n         _members[member_address]=0;\r\n    }\r\n    \r\n    \r\n    /**Function to transfer the committee to the account whose turn it is */\r\n    function withdrawCommitee() public{\r\n        //reset if cycle complete\r\n        if(cycle_paid_count == memberCount){\r\n            turnAddress.transfer(amount);\r\n            for (uint i = 0; i<members_array.length; i++) {\r\n                paid_in_cycle[members_array[i]] = false; //set all members pay in cycle to false\r\n            }\r\n            cycle_paid_count = 0;\r\n            current_cycle += 1;\r\n            turnAddress = address(uint160(members_array[current_cycle-1]));\r\n        }\r\n        \r\n    }\r\n    /**Function to stop the committee once it is finished */\r\n    function stopCommittee() public {\r\n        isActive = false;\r\n    }\r\n\r\n\r\n    /**Utility functions */\r\n    function setQuorum(uint q) public {\r\n        quorum = q;\r\n    }\r\n\r\n    function setCycles(uint q) public {\r\n        current_cycle = q;\r\n    }\r\n    function setAmount(uint a) public {\r\n        amount = a;\r\n    }\r\n\r\n    function setLateFee(uint lf) public {\r\n        lateFee = lf;\r\n    }\r\n\r\n    function makepool(uint amo, uint cycles, uint quo) public payable{\r\n        current_cycle = cycles;\r\n        quorum = quo;\r\n        amount = amo;\r\n        security_amount = amo;\r\n    }\r\n\r\n    function isPoolOwner() public view returns(bool) {\r\n        return msg.sender == owner;\r\n    }\r\n\r\n}",
  "sourcePath": "C:\\Users\\Nauraiz Mushtaq\\Documents\\ethereum\\truffle\\truffle\\contracts\\Commitee.sol",
  "compiler": {
    "name": "solc",
    "version": "0.5.16+commit.9c3226ce.Emscripten.clang"
  },
  "schemaVersion": "3.2.0",
  "updatedAt": "2020-06-11T12:54:10.762Z",
  "networkType": "ethereum",
  "devdoc": {
    "methods": {}
  },
  "userdoc": {
    "methods": {
      "addMember(address,string)": {
        "notice": "Function to add a new member to the committee "
      },
      "leaveCommitee(address)": {
        "notice": "Function to leave the committee "
      },
      "payCommittee(address)": {
        "notice": "Function to pay the committee for the current cycle. It can be paid only once in the cycle "
      },
      "setQuorum(uint256)": {
        "notice": "Utility functions "
      },
      "stopCommittee()": {
        "notice": "Function to stop the committee once it is finished "
      },
      "withdrawCommitee()": {
        "notice": "Function to transfer the committee to the account whose turn it is "
      }
    }
  }
}