{
  "contractName": "Committee",
  "abi": [
    {
      "inputs": [],
      "payable": false,
      "stateMutability": "nonpayable",
      "type": "constructor"
    },
    {
      "constant": true,
      "inputs": [],
      "name": "owner",
      "outputs": [
        {
          "internalType": "address",
          "name": "",
          "type": "address"
        }
      ],
      "payable": false,
      "stateMutability": "view",
      "type": "function"
    },
    {
      "constant": true,
      "inputs": [],
      "name": "poolCount",
      "outputs": [
        {
          "internalType": "uint256",
          "name": "",
          "type": "uint256"
        }
      ],
      "payable": false,
      "stateMutability": "view",
      "type": "function"
    },
    {
      "constant": true,
      "inputs": [
        {
          "internalType": "uint256",
          "name": "",
          "type": "uint256"
        }
      ],
      "name": "pools",
      "outputs": [
        {
          "internalType": "address",
          "name": "owner",
          "type": "address"
        },
        {
          "internalType": "uint256",
          "name": "quorum",
          "type": "uint256"
        },
        {
          "internalType": "uint256",
          "name": "amount",
          "type": "uint256"
        },
        {
          "internalType": "uint256",
          "name": "timePeriod",
          "type": "uint256"
        },
        {
          "internalType": "uint256",
          "name": "lateFee",
          "type": "uint256"
        },
        {
          "internalType": "bool",
          "name": "isActive",
          "type": "bool"
        }
      ],
      "payable": false,
      "stateMutability": "view",
      "type": "function"
    },
    {
      "constant": false,
      "inputs": [
        {
          "internalType": "uint256",
          "name": "quorum",
          "type": "uint256"
        },
        {
          "internalType": "uint256",
          "name": "amount",
          "type": "uint256"
        },
        {
          "internalType": "uint256",
          "name": "timePeriod",
          "type": "uint256"
        },
        {
          "internalType": "uint256",
          "name": "lateFee",
          "type": "uint256"
        }
      ],
      "name": "makePool",
      "outputs": [
        {
          "internalType": "uint256",
          "name": "",
          "type": "uint256"
        }
      ],
      "payable": false,
      "stateMutability": "nonpayable",
      "type": "function"
    },
    {
      "constant": false,
      "inputs": [
        {
          "internalType": "uint256",
          "name": "poolid",
          "type": "uint256"
        },
        {
          "internalType": "address",
          "name": "member_address",
          "type": "address"
        }
      ],
      "name": "addMember",
      "outputs": [],
      "payable": false,
      "stateMutability": "nonpayable",
      "type": "function"
    },
    {
      "constant": false,
      "inputs": [
        {
          "internalType": "uint256",
          "name": "poolID",
          "type": "uint256"
        }
      ],
      "name": "payCommittee",
      "outputs": [],
      "payable": false,
      "stateMutability": "nonpayable",
      "type": "function"
    },
    {
      "constant": true,
      "inputs": [
        {
          "internalType": "uint256",
          "name": "poolID",
          "type": "uint256"
        }
      ],
      "name": "isPoolOwner",
      "outputs": [
        {
          "internalType": "bool",
          "name": "",
          "type": "bool"
        }
      ],
      "payable": false,
      "stateMutability": "view",
      "type": "function"
    },
    {
      "constant": false,
      "inputs": [
        {
          "internalType": "uint256",
          "name": "index",
          "type": "uint256"
        }
      ],
      "name": "stopCommittee",
      "outputs": [],
      "payable": false,
      "stateMutability": "nonpayable",
      "type": "function"
    }
  ],
  "bytecode": "0x608060405234801561001057600080fd5b5033600260006101000a81548173ffffffffffffffffffffffffffffffffffffffff021916908373ffffffffffffffffffffffffffffffffffffffff16021790555061081b806100616000396000f3fe608060405234801561001057600080fd5b50600436106100885760003560e01c80639aaced8e1161005b5780639aaced8e14610199578063ac4afa38146101c7578063f525cb681461025c578063fd4d593b1461027a57610088565b80633aeb36ff1461008d57806374d0a676146100d3578063835c154c146101215780638da5cb5b1461014f575b600080fd5b6100b9600480360360208110156100a357600080fd5b81019080803590602001909291905050506102da565b604051808215151515815260200191505060405180910390f35b61011f600480360360408110156100e957600080fd5b8101908080359060200190929190803573ffffffffffffffffffffffffffffffffffffffff169060200190929190505050610347565b005b61014d6004803603602081101561013757600080fd5b810190808035906020019092919050505061042f565b005b6101576104cd565b604051808273ffffffffffffffffffffffffffffffffffffffff1673ffffffffffffffffffffffffffffffffffffffff16815260200191505060405180910390f35b6101c5600480360360208110156101af57600080fd5b81019080803590602001909291905050506104f3565b005b6101f3600480360360208110156101dd57600080fd5b81019080803590602001909291905050506104f6565b604051808773ffffffffffffffffffffffffffffffffffffffff1673ffffffffffffffffffffffffffffffffffffffff16815260200186815260200185815260200184815260200183815260200182151515158152602001965050505050505060405180910390f35b61026461055f565b6040518082815260200191505060405180910390f35b6102c46004803603608081101561029057600080fd5b8101908080359060200190929190803590602001909291908035906020019092919080359060200190929190505050610565565b6040518082815260200191505060405180910390f35b600080600083815260200190815260200160002060000160009054906101000a900473ffffffffffffffffffffffffffffffffffffffff1673ffffffffffffffffffffffffffffffffffffffff163373ffffffffffffffffffffffffffffffffffffffff16149050919050565b600160008084815260200190815260200160002060010160008373ffffffffffffffffffffffffffffffffffffffff1673ffffffffffffffffffffffffffffffffffffffff16815260200190815260200160002060006101000a81548160ff0219169083151502179055506000808381526020019081526020016000206002018190806001815401808255809150509060018203906000526020600020016000909192909190916101000a81548173ffffffffffffffffffffffffffffffffffffffff021916908373ffffffffffffffffffffffffffffffffffffffff160217905550505050565b60008082815260200190815260200160002060000160009054906101000a900473ffffffffffffffffffffffffffffffffffffffff1673ffffffffffffffffffffffffffffffffffffffff163373ffffffffffffffffffffffffffffffffffffffff161461049c57600080fd5b600080600083815260200190815260200160002060090160006101000a81548160ff02191690831515021790555050565b600260009054906101000a900473ffffffffffffffffffffffffffffffffffffffff1681565b50565b60006020528060005260406000206000915090508060000160009054906101000a900473ffffffffffffffffffffffffffffffffffffffff16908060030154908060040154908060050154908060080154908060090160009054906101000a900460ff16905086565b60015481565b60006001600081548092919060010191905055506040518061010001604052803373ffffffffffffffffffffffffffffffffffffffff168152602001600a6040519080825280602002602001820160405280156105d15781602001602082028038833980820191505090505b508152602001868152602001858152602001848152602001600a6040519080825280602002602001820160405280156106195781602001602082028038833980820191505090505b50815260200183815260200160001515815250600080600154815260200190815260200160002060008201518160000160006101000a81548173ffffffffffffffffffffffffffffffffffffffff021916908373ffffffffffffffffffffffffffffffffffffffff16021790555060208201518160020190805190602001906106a3929190610719565b5060408201518160030155606082015181600401556080820151816005015560a08201518160070190805190602001906106de929190610719565b5060c0820151816008015560e08201518160090160006101000a81548160ff0219169083151502179055509050506001549050949350505050565b828054828255906000526020600020908101928215610792579160200282015b828111156107915782518260006101000a81548173ffffffffffffffffffffffffffffffffffffffff021916908373ffffffffffffffffffffffffffffffffffffffff16021790555091602001919060010190610739565b5b50905061079f91906107a3565b5090565b6107e391905b808211156107df57600081816101000a81549073ffffffffffffffffffffffffffffffffffffffff0219169055506001016107a9565b5090565b9056fea265627a7a7231582007d442b99ae6c286789b8cc2766fb8756a9ffda1cf234e12f03657b1b0ccf0a264736f6c63430005100032",
  "source": "pragma solidity >=0.4.21 <0.7.0;\r\n\r\ncontract Committee {\r\n\r\n    struct Candidate {\r\n        uint id;\r\n        string name;\r\n        uint voteCount;\r\n    }\r\n    struct Pool {\r\n        \r\n        address owner;\r\n\r\n        mapping(address => bool)  members; //members who have joined\r\n        address[]  _members;\r\n        \r\n        uint quorum; //fixed number of members\r\n        \r\n        uint amount; //in wei\r\n        \r\n        uint timePeriod;//in days\r\n\r\n        mapping(address => bool)  blacklist; //addresses who are not allowed to be members\r\n        address[]  _blacklist;\r\n        \r\n        uint lateFee;\r\n\r\n        bool isActive;//is committee running (or waiting for members etc)?\r\n    }\r\n\r\n    mapping(uint => Pool) public pools;\r\n    uint public poolCount;\r\n\r\n    address public owner;\r\n\r\n\r\n    constructor() public {\r\n        owner = msg.sender;\r\n    }\r\n\r\n    //makes new committee pool\r\n    //returns poolid\r\n    function makePool(uint quorum, uint amount, uint timePeriod, uint lateFee) public returns (uint) {\r\n        poolCount++;\r\n        pools[poolCount] = Pool({owner:msg.sender,\r\n            _members:new address[](10),\r\n            quorum:quorum,\r\n            amount:amount,\r\n            timePeriod:timePeriod,\r\n            lateFee:lateFee,\r\n            _blacklist:new address[](10),\r\n            isActive:false});\r\n        return poolCount;\r\n    }\r\n\r\n    function addMember (uint poolid, address member_address) public {\r\n        pools[poolid].members[member_address]=true; //mark as true\r\n        pools[poolid]._members.push(member_address); //add to array\r\n        //TODO: who can add member?\r\n        //TODO: if quorum is complete make pool.isActive=true\r\n    }\r\n\r\n    function payCommittee(uint poolID) public{\r\n        //TODO: how to pay?\r\n    }\r\n\r\n    function isPoolOwner(uint poolID) public view returns(bool) {\r\n        return msg.sender == pools[poolID].owner;\r\n    }\r\n\r\n    function stopCommittee(uint index) public {\r\n        require(msg.sender == pools[index].owner);\r\n        pools[index].isActive = false;\r\n    }\r\n\r\n}",
  "sourcePath": "C:\\Users\\Haris\\Desktop\\IBC project\\contracts\\Commitee.sol",
  "compiler": {
    "name": "solc",
    "version": "0.5.16+commit.9c3226ce.Emscripten.clang"
  },
  "schemaVersion": "3.0.23",
  "updatedAt": "2020-05-20T17:11:02.569Z",
  "devdoc": {
    "methods": {}
  },
  "userdoc": {
    "methods": {}
  }
}