{
  "contractName": "Committee",
  "abi": [
    {
      "inputs": [],
      "payable": false,
      "stateMutability": "nonpayable",
      "type": "constructor"
    },
    {
      "constant": true,
      "inputs": [
        {
          "internalType": "address",
          "name": "",
          "type": "address"
        }
      ],
      "name": "_members",
      "outputs": [
        {
          "internalType": "uint256",
          "name": "",
          "type": "uint256"
        }
      ],
      "payable": false,
      "stateMutability": "view",
      "type": "function"
    },
    {
      "constant": true,
      "inputs": [],
      "name": "amount",
      "outputs": [
        {
          "internalType": "uint256",
          "name": "",
          "type": "uint256"
        }
      ],
      "payable": false,
      "stateMutability": "view",
      "type": "function"
    },
    {
      "constant": true,
      "inputs": [],
      "name": "current_cycle",
      "outputs": [
        {
          "internalType": "uint256",
          "name": "",
          "type": "uint256"
        }
      ],
      "payable": false,
      "stateMutability": "view",
      "type": "function"
    },
    {
      "constant": true,
      "inputs": [],
      "name": "isActive",
      "outputs": [
        {
          "internalType": "bool",
          "name": "",
          "type": "bool"
        }
      ],
      "payable": false,
      "stateMutability": "view",
      "type": "function"
    },
    {
      "constant": true,
      "inputs": [],
      "name": "lateFee",
      "outputs": [
        {
          "internalType": "uint256",
          "name": "",
          "type": "uint256"
        }
      ],
      "payable": false,
      "stateMutability": "view",
      "type": "function"
    },
    {
      "constant": true,
      "inputs": [],
      "name": "memberCount",
      "outputs": [
        {
          "internalType": "uint256",
          "name": "",
          "type": "uint256"
        }
      ],
      "payable": false,
      "stateMutability": "view",
      "type": "function"
    },
    {
      "constant": true,
      "inputs": [
        {
          "internalType": "uint256",
          "name": "",
          "type": "uint256"
        }
      ],
      "name": "members",
      "outputs": [
        {
          "internalType": "address",
          "name": "_address",
          "type": "address"
        },
        {
          "internalType": "string",
          "name": "name",
          "type": "string"
        },
        {
          "internalType": "uint256",
          "name": "amountPaid",
          "type": "uint256"
        },
        {
          "internalType": "uint256",
          "name": "security",
          "type": "uint256"
        }
      ],
      "payable": false,
      "stateMutability": "view",
      "type": "function"
    },
    {
      "constant": true,
      "inputs": [],
      "name": "owner",
      "outputs": [
        {
          "internalType": "address",
          "name": "",
          "type": "address"
        }
      ],
      "payable": false,
      "stateMutability": "view",
      "type": "function"
    },
    {
      "constant": true,
      "inputs": [
        {
          "internalType": "address",
          "name": "",
          "type": "address"
        }
      ],
      "name": "paid_in_cycle",
      "outputs": [
        {
          "internalType": "bool",
          "name": "",
          "type": "bool"
        }
      ],
      "payable": false,
      "stateMutability": "view",
      "type": "function"
    },
    {
      "constant": true,
      "inputs": [],
      "name": "quorum",
      "outputs": [
        {
          "internalType": "uint256",
          "name": "",
          "type": "uint256"
        }
      ],
      "payable": false,
      "stateMutability": "view",
      "type": "function"
    },
    {
      "constant": true,
      "inputs": [],
      "name": "security_amount",
      "outputs": [
        {
          "internalType": "uint256",
          "name": "",
          "type": "uint256"
        }
      ],
      "payable": false,
      "stateMutability": "view",
      "type": "function"
    },
    {
      "constant": true,
      "inputs": [],
      "name": "turnAddress",
      "outputs": [
        {
          "internalType": "address payable",
          "name": "",
          "type": "address"
        }
      ],
      "payable": false,
      "stateMutability": "view",
      "type": "function"
    },
    {
      "constant": false,
      "inputs": [
        {
          "internalType": "address",
          "name": "member_address",
          "type": "address"
        },
        {
          "internalType": "string",
          "name": "name",
          "type": "string"
        }
      ],
      "name": "addMember",
      "outputs": [
        {
          "internalType": "bool",
          "name": "",
          "type": "bool"
        }
      ],
      "payable": true,
      "stateMutability": "payable",
      "type": "function"
    },
    {
      "constant": false,
      "inputs": [
        {
          "internalType": "uint256",
          "name": "q",
          "type": "uint256"
        }
      ],
      "name": "setQuorum",
      "outputs": [],
      "payable": false,
      "stateMutability": "nonpayable",
      "type": "function"
    },
    {
      "constant": false,
      "inputs": [
        {
          "internalType": "uint256",
          "name": "a",
          "type": "uint256"
        }
      ],
      "name": "setAmount",
      "outputs": [],
      "payable": false,
      "stateMutability": "nonpayable",
      "type": "function"
    },
    {
      "constant": false,
      "inputs": [
        {
          "internalType": "uint256",
          "name": "lf",
          "type": "uint256"
        }
      ],
      "name": "setLateFee",
      "outputs": [],
      "payable": false,
      "stateMutability": "nonpayable",
      "type": "function"
    },
    {
      "constant": false,
      "inputs": [
        {
          "internalType": "address",
          "name": "member_address",
          "type": "address"
        }
      ],
      "name": "payCommittee",
      "outputs": [],
      "payable": true,
      "stateMutability": "payable",
      "type": "function"
    },
    {
      "constant": true,
      "inputs": [],
      "name": "isPoolOwner",
      "outputs": [
        {
          "internalType": "bool",
          "name": "",
          "type": "bool"
        }
      ],
      "payable": false,
      "stateMutability": "view",
      "type": "function"
    },
    {
      "constant": false,
      "inputs": [],
      "name": "withdrawCommitee",
      "outputs": [],
      "payable": false,
      "stateMutability": "nonpayable",
      "type": "function"
    },
    {
      "constant": false,
      "inputs": [],
      "name": "stopCommittee",
      "outputs": [],
      "payable": false,
      "stateMutability": "nonpayable",
      "type": "function"
    }
  ],
  "bytecode": "0x608060405234801561001057600080fd5b5033600d60006101000a81548173ffffffffffffffffffffffffffffffffffffffff021916908373ffffffffffffffffffffffffffffffffffffffff1602179055506000600760006101000a81548160ff021916908315150217905550670de0b6b3a764000060018190555033600e60006101000a81548173ffffffffffffffffffffffffffffffffffffffff021916908373ffffffffffffffffffffffffffffffffffffffff1602179055506003600081905550610fe8806100d46000396000f3fe60806040526004361061011f5760003560e01c80638da5cb5b116100a0578063c127c24711610064578063c127c24714610536578063c170177214610629578063c1ba4e5914610654578063cda57a221461068f578063ea3dbfe4146106f45761011f565b80638da5cb5b146103f0578063931f05d914610447578063aa8c217c1461045e578063ad29a4db14610489578063bf0366c8146104cd5761011f565b80633f4de62f116100e75780633f4de62f1461023b57806346c25b3f146102665780635daf08ca1461029557806370eb0a901461038a5780637e99a3d6146103b55761011f565b806307967afd1461012457806311aee3801461017b5780631703a018146101a657806322f3e2d4146101d1578063271f88b414610200575b600080fd5b34801561013057600080fd5b5061013961070b565b604051808273ffffffffffffffffffffffffffffffffffffffff1673ffffffffffffffffffffffffffffffffffffffff16815260200191505060405180910390f35b34801561018757600080fd5b50610190610731565b6040518082815260200191505060405180910390f35b3480156101b257600080fd5b506101bb610737565b6040518082815260200191505060405180910390f35b3480156101dd57600080fd5b506101e661073d565b604051808215151515815260200191505060405180910390f35b34801561020c57600080fd5b506102396004803603602081101561022357600080fd5b8101908080359060200190929190505050610750565b005b34801561024757600080fd5b5061025061075a565b6040518082815260200191505060405180910390f35b34801561027257600080fd5b5061027b610760565b604051808215151515815260200191505060405180910390f35b3480156102a157600080fd5b506102ce600480360360208110156102b857600080fd5b81019080803590602001909291905050506107b8565b604051808573ffffffffffffffffffffffffffffffffffffffff1673ffffffffffffffffffffffffffffffffffffffff16815260200180602001848152602001838152602001828103825285818151815260200191508051906020019080838360005b8381101561034c578082015181840152602081019050610331565b50505050905090810190601f1680156103795780820380516001836020036101000a031916815260200191505b509550505050505060405180910390f35b34801561039657600080fd5b5061039f6108a0565b6040518082815260200191505060405180910390f35b3480156103c157600080fd5b506103ee600480360360208110156103d857600080fd5b81019080803590602001909291905050506108a6565b005b3480156103fc57600080fd5b506104056108b0565b604051808273ffffffffffffffffffffffffffffffffffffffff1673ffffffffffffffffffffffffffffffffffffffff16815260200191505060405180910390f35b34801561045357600080fd5b5061045c6108d6565b005b34801561046a57600080fd5b506104736108f3565b6040518082815260200191505060405180910390f35b6104cb6004803603602081101561049f57600080fd5b81019080803573ffffffffffffffffffffffffffffffffffffffff1690602001909291905050506108f9565b005b3480156104d957600080fd5b5061051c600480360360208110156104f057600080fd5b81019080803573ffffffffffffffffffffffffffffffffffffffff169060200190929190505050610a4d565b604051808215151515815260200191505060405180910390f35b61060f6004803603604081101561054c57600080fd5b81019080803573ffffffffffffffffffffffffffffffffffffffff1690602001909291908035906020019064010000000081111561058957600080fd5b82018360208201111561059b57600080fd5b803590602001918460018302840111640100000000831117156105bd57600080fd5b91908080601f016020809104026020016040519081016040528093929190818152602001838380828437600081840152601f19601f820116905080830192505050505050509192919290505050610a6d565b604051808215151515815260200191505060405180910390f35b34801561063557600080fd5b5061063e610d26565b6040518082815260200191505060405180910390f35b34801561066057600080fd5b5061068d6004803603602081101561067757600080fd5b8101908080359060200190929190505050610d2c565b005b34801561069b57600080fd5b506106de600480360360208110156106b257600080fd5b81019080803573ffffffffffffffffffffffffffffffffffffffff169060200190929190505050610d36565b6040518082815260200191505060405180910390f35b34801561070057600080fd5b50610709610d4e565b005b600e60009054906101000a900473ffffffffffffffffffffffffffffffffffffffff1681565b600b5481565b60005481565b600760009054906101000a900460ff1681565b8060018190555050565b60065481565b6000600d60009054906101000a900473ffffffffffffffffffffffffffffffffffffffff1673ffffffffffffffffffffffffffffffffffffffff163373ffffffffffffffffffffffffffffffffffffffff1614905090565b60086020528060005260406000206000915090508060000160009054906101000a900473ffffffffffffffffffffffffffffffffffffffff1690806001018054600181600116156101000203166002900480601f01602080910402602001604051908101604052809291908181526020018280546001816001161561010002031660029004801561088a5780601f1061085f5761010080835404028352916020019161088a565b820191906000526020600020905b81548152906001019060200180831161086d57829003601f168201915b5050505050908060020154908060030154905084565b60025481565b8060068190555050565b600d60009054906101000a900473ffffffffffffffffffffffffffffffffffffffff1681565b6000600760006101000a81548160ff021916908315150217905550565b60015481565b60011515600760009054906101000a900460ff1615151461091957600080fd5b60011515600460008373ffffffffffffffffffffffffffffffffffffffff1673ffffffffffffffffffffffffffffffffffffffff16815260200190815260200160002060009054906101000a900460ff161515141561097757610a4a565b6000600960008373ffffffffffffffffffffffffffffffffffffffff1673ffffffffffffffffffffffffffffffffffffffff1681526020019081526020016000205490503460086000838152602001908152602001600020600201600082825401925050819055506001600460008473ffffffffffffffffffffffffffffffffffffffff1673ffffffffffffffffffffffffffffffffffffffff16815260200190815260200160002060006101000a81548160ff0219169083151502179055506001600560008282540192505081905550505b50565b60046020528060005260406000206000915054906101000a900460ff1681565b600060011515600760009054906101000a900460ff1615151415610a945760009050610d20565b60011515600c60008573ffffffffffffffffffffffffffffffffffffffff1673ffffffffffffffffffffffffffffffffffffffff16815260200190815260200160002060009054906101000a900460ff1615151415610af65760009050610d20565b6000600960008573ffffffffffffffffffffffffffffffffffffffff1673ffffffffffffffffffffffffffffffffffffffff168152602001908152602001600020541115610b475760009050610d20565b600b6000815480929190600101919050555060405180608001604052808473ffffffffffffffffffffffffffffffffffffffff16815260200183815260200160008152602001600081525060086000600b54815260200190815260200160002060008201518160000160006101000a81548173ffffffffffffffffffffffffffffffffffffffff021916908373ffffffffffffffffffffffffffffffffffffffff1602179055506020820151816001019080519060200190610c0a929190610f0e565b506040820151816002015560608201518160030155905050600b54600960008573ffffffffffffffffffffffffffffffffffffffff1673ffffffffffffffffffffffffffffffffffffffff168152602001908152602001600020819055503460086000600b54815260200190815260200160002060030181905550600a8390806001815401808255809150509060018203906000526020600020016000909192909190916101000a81548173ffffffffffffffffffffffffffffffffffffffff021916908373ffffffffffffffffffffffffffffffffffffffff16021790555050600054600b541415610d1b576001600760006101000a81548160ff02191690831515021790555060016003819055505b600190505b92915050565b60035481565b8060008190555050565b60096020528060005260406000206000915090505481565b600b546005541415610f0c57600e60009054906101000a900473ffffffffffffffffffffffffffffffffffffffff1673ffffffffffffffffffffffffffffffffffffffff166108fc6001549081150290604051600060405180830381858888f19350505050158015610dc4573d6000803e3d6000fd5b5060008090505b600a80549050811015610e7457600060046000600a8481548110610deb57fe5b9060005260206000200160009054906101000a900473ffffffffffffffffffffffffffffffffffffffff1673ffffffffffffffffffffffffffffffffffffffff1673ffffffffffffffffffffffffffffffffffffffff16815260200190815260200160002060006101000a81548160ff0219169083151502179055508080600101915050610dcb565b5060006005819055506001600360008282540192505081905550600a60016003540381548110610ea057fe5b9060005260206000200160009054906101000a900473ffffffffffffffffffffffffffffffffffffffff16600e60006101000a81548173ffffffffffffffffffffffffffffffffffffffff021916908373ffffffffffffffffffffffffffffffffffffffff1602179055505b565b828054600181600116156101000203166002900490600052602060002090601f016020900481019282601f10610f4f57805160ff1916838001178555610f7d565b82800160010185558215610f7d579182015b82811115610f7c578251825591602001919060010190610f61565b5b509050610f8a9190610f8e565b5090565b610fb091905b80821115610fac576000816000905550600101610f94565b5090565b9056fea265627a7a7231582093af2464b214afe4a1689182f6cf1bc6ee9484346fa5717e1025bb49b955f34864736f6c63430005100032",
  "source": "pragma solidity >=0.4.21 <0.7.0;\r\n\r\ncontract Committee {\r\n\r\n    struct Member {\r\n        address _address; //address of member\r\n        string name;\r\n        uint amountPaid; //amount in wei that member has paid\r\n        uint security;\r\n    }\r\n\r\n    uint public quorum; //fixed number of members default=3\r\n\r\n    uint public amount; //amount in wei that everyone must pay default = 1 eth\r\n\r\n    uint public security_amount; //security that must be paid when joining\r\n\r\n    uint public current_cycle;\r\n    mapping(address => bool) public paid_in_cycle; //check if member has paid in current cycle\r\n    uint cycle_paid_count;\r\n\r\n    uint public lateFee;\r\n\r\n    bool public isActive;//is committee running (or waiting for members etc)?\r\n\r\n    mapping(uint => Member) public members; //to store member objects to get name ect of members4\r\n    mapping(address => uint) public _members; //to get key of member => 0 for invalid members, some index for valid members\r\n    address[] members_array;\r\n    uint public memberCount;\r\n    mapping(address => bool)  blacklist; //addresses who are not allowed to be members => blacklist(address) == true if member is in blacklist\r\n\r\n    address public owner; //owner of pool\r\n\r\n    address payable public turnAddress; //whose turn it is default: owner\r\n\r\n    constructor() public {\r\n        owner = msg.sender;\r\n        isActive = false;\r\n        amount = 1 ether;\r\n        turnAddress = msg.sender;\r\n        quorum = 3;\r\n\r\n    }\r\n\r\n    function addMember (address member_address, string memory name) public payable returns (bool){\r\n        if(isActive == true){\r\n            return false;\r\n        }\r\n        if(blacklist[member_address] == true){\r\n            return false;\r\n        }\r\n        if(_members[member_address] > 0) {\r\n            return false;\r\n        }\r\n\r\n        /**Create new member */\r\n        memberCount++; //increse index number\r\n        members[memberCount] = Member(member_address,name,0,0); //create member object add to members map\r\n        _members[member_address] = memberCount; //store index in _members map\r\n      \tmembers[memberCount].security = msg.value;\r\n        members_array.push(member_address);\r\n        /*Make pool as active if quorum complete*/\r\n        if(memberCount == quorum){\r\n            isActive = true;\r\n            current_cycle = 1;\r\n        }\r\n        return true;\r\n    }\r\n\r\n    function setQuorum(uint q) public {\r\n        quorum = q;\r\n    }\r\n\r\n    function setAmount(uint a) public {\r\n        amount = a;\r\n    }\r\n\r\n    function setLateFee(uint lf) public {\r\n        lateFee = lf;\r\n    }\r\n\r\n    function payCommittee(address member_address) public payable{\r\n        require (isActive == true);\r\n        if(paid_in_cycle[member_address] == true){\r\n            return;\r\n        }\r\n        //TODO: check if msg.value is correct\r\n        uint index = _members[member_address]; //get index\r\n        members[index].amountPaid += msg.value; //msg.value contains the amount sent\r\n        //^ Note: this is only record keeping. Actual amount is stored in contract.\r\n\r\n        paid_in_cycle[member_address] = true;\r\n        cycle_paid_count+=1;\r\n    }\r\n\r\n    function isPoolOwner() public view returns(bool) {\r\n        return msg.sender == owner;\r\n    }\r\n\r\n    function withdrawCommitee() public{\r\n        //reset if cycle complete\r\n        if(cycle_paid_count == memberCount){\r\n            turnAddress.transfer(amount);\r\n            for (uint i = 0; i<members_array.length; i++) {\r\n                paid_in_cycle[members_array[i]] = false; //set all members pay in cycle to false\r\n            }\r\n            cycle_paid_count = 0;\r\n            current_cycle+=1;\r\n            turnAddress = address(uint160(members_array[current_cycle-1]));\r\n        }\r\n        \r\n    }\r\n\r\n    function stopCommittee() public {\r\n        isActive = false;\r\n      \t//TODO: loop to pay back security\r\n    }\r\n\r\n}",
  "sourcePath": "C:\\Users\\Haris\\Desktop\\IBC project\\Committee-System-Ethereum\\truffle\\contracts\\Commitee.sol",
  "compiler": {
    "name": "solc",
    "version": "0.5.16+commit.9c3226ce.Emscripten.clang"
  },
  "schemaVersion": "3.0.23",
  "updatedAt": "2020-06-08T18:49:37.177Z",
  "networkType": "ethereum",
  "devdoc": {
    "methods": {}
  },
  "userdoc": {
    "methods": {}
  }
}